:020000042000DA
:1000000000980020A9040020B1040020C9040020A9
:1000100000000000000000000000000000000000E0
:10002000000000000000000000000000E1040020CB
:100030000000000000000000F9040020FB04002084
:10004000FF230020053103000D310300852400202B
:10005000912400208D310300E7240020EF240020AC
:10006000FF160020FD0400200D250020AD31030007
:1000700051140020511600204B1B02004B1B0200A4
:100080004B1B0200FD0400204B1B0200311200201C
:1000900035120020391200203D12002041120020AC
:020000042000DA
:1001600032000000190600204F1000204B2600200E
:10017000000000000000000063800200BD8002005B
:10018000990E0020FB8002001981020035810200D7
:100190005D810200D1230020FF050020690E0020B0
:1001A000810E002000000000000000003F00000061
:1001B000F4850020000A0000680D0800900200008D
:1001C00068070800F405000004100800EC050000B2
:1001D000000000002000000048000000580000005F
:1001E0006800000004010000160100002801000062
:1001F0002E010000201A00008E1E000001000000E9
:1002000088130000D9100020E9600200FD9302006D
:100210008B19002019280300A5740200D91F0020A3
:1002200003000000D52002005B260020040000002F
:10023000D74902000F490200831D020063910200AA
:10024000B7910200BF910200078202007182020092
:10025000784C0020AD8302009384020041850200A7
:1002600015860200378602005F860200758602004E
:10027000F9870200258902005D8A0200D38C020002
:10028000098D02000F900200438D0200278E0200AC
:10029000F98E0200478F0200DB0D0020D58F02008F
:1002A00049510200775102002F5202001000000055
:1002B00020030000803E000000000000000000005D
:020000042000DA
:1002C000504600030003983A6400F401B80B000C98
:1002D000B80B120030003000CD009A01120024004B
:1002E00030006400B0001800280012001200D0078F
:1002F0000000FFFF00000000000000000000000000
:100300001F000002444131343538302D30310000B7
:1003100000000000000000000000000000000000DD
:0403200000000000D9
:020000042000DA
:10034000FFFF010000C201000000000000000000EB
:100350000000F4010100011B0A0B1AFFD200021574
:10036000585CDE931B0142CC9A1325009BEDC65EC0
:1003700000000000C5000000000009FF00605257A7
:100380002D424C450000000000000000000000006D
:1003900000000000000000000000536D6172742036
:1003A0004C69676874000000000000000000000055
:1003B000000000000000000000000000000000003D
:1003C000000000000000000000000000000000002D
:1003D0000000000000000000010000CAEA80D00711
:0403E000064064323D
:020000042000DA
:100440000348854603F0FEFF00480047C72002002E
:100450000098002010B5114906200880FF2010499F
:10046000013008600F4988683E2290432E30886032
:100470000021052000070180028A0F231B021A4376
:1004800002820122D204032308461B038418216040
:10049000001D9842FADB62B610BD00000034005027
:1004A00080E100E0003300501548804715480047C0
:1004B00004207146084203D0EFF30980124908472F
:1004C000EFF308801049084704207146084203D022
:1004D000EFF309800D490847EFF308800B490847FF
:1004E00004207146084203D0EFF309800849084709
:1004F000EFF3088006490847FEE7FEE7FEE7000045
:100500005504002041040020310A00201505002078
:100510008705002005221207518A80231943518242
:10052000114903680B6043684B6083688B60C36844
:10053000CB6003690B6143694B6183698B61C0695F
:10054000C8610A48836A0B62C36A4B62036B8B62A1
:10055000C36BCB62436B0B63806B4863908A8006EE
:1005600001D500BE7047FEE70018080000ED00E06E
:1005700002890889C649101A80B2884201D901202F
:1005800070470020704781692039897F082904D28B
:10059000C04A8900515881617047FEE7BF48BE4993
:1005A0000161BF494161BF498161BF49C161BF4923
:1005B0000162BF494162BF498162BF49C162BF490F
:1005C0000163BF494163BF498163BF49C163BD49FD
:1005D000B2485C3140300160BC494160BC49816037
:1005E000BC49C1600120BC49C0060860BB49CA695A
:1005F0001202120ACA61B84980390860704710B502
:10060000B7490020086000F0D3FB01208007016B90
:1006100049004908016310BD1CB5B2480124B24F1E
:10062000047008263E8003F01FFF04F071FA00F00A
:10063000D7FAAE4801780170AD4801780170012009
:1006400003F018FF0D202102800103F019FF01F0D3
:10065000D5FD00F065FC00F0FBFAA64D28894009A5
:100660004001288128890F21890288436914401894
:100670002881A14868822620A8820720E8826C830E
:1006800068881E21884314306880042000F0F8F840
:10069000072000F0F5F80A2000F0F2F8062000F03C
:1006A000EFF80B2000F0ECF8012000F0E9F8022050
:1006B00000F0E6F8002000F0E3F89048006803F04E
:1006C000E5FEA007016882151143016000F028F9DA
:1006D0008B480068AA2805D1142000F027FB1420BD
:1006E00000F032FB02F084FCFFF789FFA220052412
:1006F0002407E0826888E0218843A03068800120D8
:1007000003F0CAFE03F0CEFE022803D003F0CAFEB7
:10071000012807D13E80A08A8006FCD4618A80200F
:100720008143618203F06CFA312176480901C1806E
:10073000032109020181022704262089000622D50F
:1007400001208007006B00041DD403F0B1FEC00738
:1007500019D1042003F0B2FE019003F0B5FE019818
:10076000002810D00020019065480068AA2802D116
:10077000142000F0E9FA042101A803F0ABFE0028E0
:1007800001D000F038FB02F01FFF03F0FCFA002854
:10079000D3D172B601F05AFD69460870042806D01C
:1007A00002280CD003280AD0012866D066E05648FB
:1007B0000078012802D00320087000E00F70208A22
:1007C000304320825148C0690128087811D9032894
:1007D0004AD103F085FE002846D003F087FE0028AA
:1007E00042D0032003F088FE00283DD0484807701F
:1007F00008E0032838D103F07FFE002834D04449B4
:10080000012008703548016931430161618A202265
:1008100091436182218A39432182694609780229FC
:10082000618A23D0314361827F212288890180231C
:100830001A4322800022521CD2B20A2AFBD3628AB7
:1008400010231A436282334A491E51612188802253
:10085000914321806988FF2201329143698030BF32
:100860000169B143016109E06846C0E73143618233
:10087000618A102291436182ECE730BF62B65CE787
:10088000C106C90E01208840234908607047000056
:1008900030750000584C002094270300008400406D
:1008A00062B600DF28A30200704701DF1CCA020005
:1008B000F8BD02DF40CB0200F5E703DF84D402007D
:1008C00004DF89B0BC330200F8BD05DFF8BD06DFE8
:1008D000EC0C030070BD07DF80E100E000ED00E0FC
:1008E0008C030800FC1508000033005000000800CD
:1008F000201A0800200000504E0200000490002042
:10090000081608002030005054020800E0010020C2
:10091000C40608000080004080E200E0704700004C
:100920003E480178002902D08021417070473C493F
:10093000002008703B49C87070473848017800298A
:1009400002D0812141707047354901200870354936
:10095000C870704731480178002902D08221417067
:1009600070472F49022008702E490120C870704737
:100970002A488178002904D0491E0906090E817091
:1009800017D142780021002A04D09207920F0270FA
:10099000417004E00278002A01D0521E0270120653
:1009A000120E017005D0012A02D0022A01D1D1E72E
:1009B000C3E7704710B5194CA078401CA070207890
:1009C000002805D103F06EFD421CFFF7A9FF22703D
:1009D00010BD12490120C870704710490020C8702E
:1009E00070470E48C07870470020EFF31081012255
:1009F00082F31088052212071289120605D40A48CC
:100A0000028901231A4302811846002900D00121DE
:100A100081F310887047054800787047FD1508007D
:100A200054020800C6060800003300505E16080095
:100A300005221207118A042319431182118A022305
:100A4000194311821189402319431181174B012148
:100A50001960174B08211980518A8023194351824C
:100A6000144903680B6143684B6183688B61C368F9
:100A7000CB6103690B6243694B6283698B62C06916
:100A8000C8620D48836A0B63C36A4B63036B8B6355
:100A9000C36BCB63436B074940310B60806B48608D
:100AA000908A800601D500BE7047FEE780E200E034
:100AB000003300504018080000ED00E010B50120A0
:100AC00004F080F801220021104600F0E9FD5548AD
:100AD00004F08AF8544804F08DF800F005FE10BDCB
:100AE00070B5524C2068401C20600A2823D16168F0
:100AF0004F4D491C616000262868FA2901D2203038
:100B000006E0FA39FA2901D2203801E02020666097
:100B10002860288880B204F067F828887D21C90100
:100B2000081A80B204F066F842490888FD22C043E2
:100B300010430880266070BD70B53F4800220169EF
:100B4000D243002901D0114600E00121CB170C0F40
:100B50001B0123430C01016138490D684E682C4389
:100B600033430C604B604369002B01D0144600E016
:100B70000124E317E50E5B012B4344610D6864011A
:100B80004E682C4333430C604B60836A002B00D1CA
:100B900001228262D017130C000418430C6812045F
:100BA0004B68224318430A60486070BD38B5002482
:100BB00003252D0202232A4604212046009403F037
:100BC000C9FE0022012305211046009403F0C2FE55
:100BD00000232A4619460120009403F0BBFE38BDCD
:100BE00010B505242407208A022188432082A08A88
:100BF0000007FCD5FFF7D2FCFFF7D8FFA0888021C3
:100C00000843A0800321092000F0D6FBFFF756FF20
:100C10000C490B48086003F0E1FF608A202108437B
:100C2000608210BD70170000102700002090002087
:100C30004450002020300050088000200080002018
:100C4000E10A0020BC800020A549002048607047D0
:100C500070B5052109070889302290430881088969
:100C6000802210430881088980088000401C088188
:100C700008890823184308819A480488144304808B
:100C80004C8A9C434C820D89402425430D810D8A5A
:100C90000426B5430D828D8AAD07FCD5904E002504
:100CA000756005880126354305804589AE058E4D62
:100CB000068801D52E4300E0AE43068005887826DD
:100CC000B5432835058005880626354305804D8ABD
:100CD0001D434D820388934303800A89A2430A81FE
:100CE0004089800503D57F49052060318880012037
:100CF000800701688215914301607C4801683F22AA
:100D000052029143421489180160016802031143A1
:100D1000016070BD0321764809028181082242806A
:100D20000021491C9629FCD3828070477149488074
:100D30000888032210430880088804221043088092
:100D400067490120087070477CB5654C21780029FF
:100D50002DD068490A885207FCD4CA880092898835
:100D600001911104019A891800916349484300993F
:100D700003F0C8FB0090002020700098A06000984D
:100D800003F0D2FA054629465C4803F078FA0A21B6
:100D900003F0B3FA03F0CFFAE060284603F0DFFA7D
:100DA000574A584B03F0B4FB03F0EDFA20617CBDC9
:100DB00010B54B484168AA2906D07C205249081832
:100DC00080B203F0ABFB10BDC06819210903884253
:100DD00000D900BEFF20EB30F0E770B5414C6088D1
:100DE000C006050F03F0A0FB61881E2291436A0034
:100DF0001143618070BD10B544490120C863C86BC0
:100E00000028FCD101208007C16941480268914255
:100E100001D20022026019238A1ADB019A4212D3FE
:100E2000016003F087FB3B4A1188884201D9411ACF
:100E300000E0091A89B2182905D31080012003F0B7
:100E40007FFB03F083FB10BD08B525498968484343
:100E5000314903F057FB009008BD08B52049C96827
:100E60004843800A009008BD08B51D49496800291B
:100E700003D0FFF7E9FF009008BD03F06DFBFAE730
:100E800008B517494968002903D0FFF7E6FF00902D
:100E900008BD03F067FBFAE708B5204901204A695D
:100EA0005206D20F13D04A699206D20F0FD00022F9
:100EB0000A610092FF225F32009B5B1C0093934209
:100EC000FAD34969C907C90F02D003F051FB0020CA
:100ED00008BD40183721C0000901401870470000C4
:100EE000041608002000005000100000000200401E
:100EF00020300050001600500024F40000247449F3
:100F00007B14AE47E17A443F01120000C00000406C
:100F10007C0408007804080040420F0000100050D4
:100F200030B58D4A8D49D005048880231C43048048
:100F30008B4C65892D0701D4521EFAD2894C0122AF
:100F40002260894C0A882280884A49881180018859
:100F50009943018030BD002070477047704770474B
:100F60000020704701218907086B0722104308639E
:100F70007047704710B57F497D4808607E494C2016
:100F800008807D4B7D4A203B1A827E497C48488000
:100F90007E487D4901807C4919314180222141816F
:100FA0008121890001827A4941827A490183784905
:100FB0001131418375497848203188804121774833
:100FC000090181807649C180754C1034C481018249
:100FD0004182891C8182611FC182FF2146310183C8
:100FE000704941837049592008806F486F4C203008
:100FF0000480432444806E4C4C82D5218180FF21A3
:10100000D33101816B4941816B4981816C496B48C6
:10101000088059486B4960384180C18810242143B9
:10102000C18062490A390181534C6749403C618063
:101030005A82082141814D485B4900884039088225
:10104000494862490088088010BD4008704700B5D3
:101050008BB05F4A42625F4A82625F4A42615F4A86
:10106000C2625F4A02605F4A02625F4A42605F4A50
:10107000C261404A3E48002110603E484038026B41
:1010800003129A430263426B1F231B049A430323F8
:101090001B04D218426356480268C3129A43026086
:1010A000026803139A43026068464154491CC9B25E
:1010B0002829FAD3014628224E4803F05FFAFFF7A9
:1010C00059FF03F037FA4C490880002003F038FA42
:1010D00003F03CFA0BB000BD10B5264A0F2124489E
:1010E0000902106023484038426B1F231B049A43B7
:1010F00003231B04D218426300060268D208D20000
:10110000026005200007028992089200521C0281A9
:10111000028908231A430281028A0A43028237485D
:101120000068002808D10E484189890504D5018846
:101130007822914308310180FFF71CFF3048006B93
:101140000078002804D02F4800880B496039C880F7
:10115000012003F0A1F910BDA0860100087F040062
:101160002000005000800040560208004A0308009A
:101170004C05540780000040602C00507F7F000029
:10118000AC29000000220050090900000024005092
:101190002204000030D00000EE11000000250050B5
:1011A0002E02000044200000402800500D95000051
:1011B00002420000E4DC00001092000053780000BE
:1011C000002A00508B1000009DD500000026005022
:1011D000570F00205B0F0020610F0020650F0020DB
:1011E0005D0F0020730F00205F0F00204B100020C8
:1011F00000020040200008007804080008160800DB
:10120000200200205204080010B5044603F0CCFB75
:101210000C49A00040188038406B002801D080475E
:1012200010BDE106C90E012088400749086010BDC5
:101230001320E9E71420E7E71520E5E71620E3E7A8
:101240001720E1E7A880002080E200E0F8B5002642
:10125000964D974C974F10E03868C0B228706E706A
:10126000112817D0132819D06169392808701BD0AC
:10127000A868491C401CA86061617869C007C00F5C
:10128000EAD16069067066612661E1690220E66163
:101290008847F8BDA16901200870EEE7A169022026
:1012A000087002F0D8F9E8E72069491C401E206167
:1012B000E2E7F8B57D4D00267D4C7E4F16E038689C
:1012C000C0B228706E70112815D0132817D061692C
:1012D0003928087019D0A868491C401CA8602069EA
:1012E0006161401E20612069002810D07869C00724
:1012F000C00FE4D1F8BDA16901200870F3E7A1692E
:101300000220087002F0A7F9EDE7491CE7E76661E3
:10131000E1690029EED00020E6618847F8BDF0B40D
:101320006348644F0021614B624A603785681CE066
:1013300099702C78002C04D0022C0ED0012C0ED0E9
:10134000FEE744682678641C16605E68761C5E6062
:101350000668761E0660446003E0132400E0112452
:10136000146029700468002C05D0BC8BA407E40F1E
:10137000DED1F0BC7047416053680224A343536040
:10138000C268002AF5D0C160F0BC0020104749496E
:10139000222008617047474901204A695206D20F4E
:1013A00008D04A699206D20F04D04A69024002D09E
:1013B000222008610020704730B43E4A938980247F
:1013C000A343938187231381002393809589254329
:1013D000958193809380108091819089A043908122
:1013E0000120354A01031160344908633048203038
:1013F000037020384361836103614360836003604D
:1014000030BCC8E72B48A021016141698906C90F9A
:10141000FBD041694906C90FF7D0704710B5244C7D
:10142000E361A261216160612248012142688A432F
:101430000A43426010BD10B51D4CE360A2602160FC
:101440001C4960604868022290431043486010BD08
:1014500010B5184881680907090F01291ED0022913
:1014600020D004291BD00C2918D11149203109782A
:10147000012911D141690906C90F0DD00C4900227B
:101480000A614A6183885B085B008380CB69002B1B
:1014900002D00120CA619847FFF7D8FE10BDFFF7C0
:1014A00008FF10BDFFF73BFF10BD00002890002093
:1014B000181608000010005000E100E080E200E093
:1014C00030B4724C71497248603408E043681A784D
:1014D0005B1C0A6002684360521E026005D0A28B4A
:1014E0009207D20FF2D130BC7047002242604B68A5
:1014F0000224A3434B6081680029F4D0826030BC91
:101500000020084730B5614A93898024A343938122
:101510000723138100239380958925439581938028
:101520009380108091819089A04390815948A101B6
:10153000016059480268FF242402A2434C00224360
:101540000260544880380160544801605048037676
:101550000361C3604360036030BDD3E74B49222081
:1015600008617047494922200861704708B547491A
:1015700001204A695206D20F13D04A699206D20F4F
:101580000FD000220A610092FF225F32009B5B1C99
:1015900000939342FAD34A69D207D20F02D0222095
:1015A0000861002008BDE1E73848A02101614169D8
:1015B0008906C90FFBD041694906C90FF7D07047AA
:1015C000F2E7334B5A61D960186130480121426813
:1015D0008A430A4342607047F3E710B52C4CA2607F
:1015E00021606060FFF76CFF6068002805D0274924
:1015F0004868022290431043486010BDEDE710B5E3
:10160000224881680907090F01291AD002291CD034
:10161000042917D00C2914D11D4A117E012910D19B
:1016200041690906C90F0CD00021D160116183887E
:101630005B085B0083805369002B02D0012051615D
:10164000984710BD00F005F810BDFFF739FF10BD39
:10165000D5E70F490D4808E002680B691A705B1C5A
:10166000CA680B61521ECA6004D04269D207D20F09
:10167000F2D1704700220A6143685B085B00436057
:101680004B69002BF5D000204A611847001100502B
:101690003C16080080E100E00CE400E080E200E09D
:1016A00030B5224B1C680825C907AC43090F0C4311
:1016B0001C6019680424D207A143520F114319601A
:1016C00019680222C0079143800F0143196018482E
:1016D00001688022090A09021143016030BD154BDF
:1016E00058809980DA807047FF20134901300860E4
:1016F0007047FF20104901308031086070470F4863
:101700000068002800D00047704770B505461446B1
:101710000E46012003F07CFA284603F085FA304695
:1017200003F08EFA0348C48170BD000000340050FD
:1017300008E400E00034005000E100E0BC8000203C
:1017400008430121890302460A4312490A80124ACA
:10175000104308800B20488070470E490A880F23E9
:101760009B0100079A43800D02430A807047094994
:1017700000200880704707480849028802231A435E
:101780000280491E02D302889207FAD40021018107
:10179000408970470015005001400000A0860100FC
:1017A00010B54D4908804D49884201D9642010BDCB
:1017B0004B49411878290ED863210901401A02F0DB
:1017C000A8FD484902F05BFD474902F01BFD02F00D
:1017D000B2FD1C3013E04249444CE0314118DF298E
:1017E0000FD855210901401A02F093FD214602F05D
:1017F00046FD3F4902F006FD02F09DFD001DC0B20E
:1018000010BD3C494118DF290DD847210901401A74
:1018100002F07FFD214602F032FD022102F06DFD53
:1018200002F089FDEBE7002010BD324910B54942B6
:10183000884209D349424018642148434721C900DE
:1018400002F0A2FEC0B210BD002010BDFF2110B5F5
:10185000B131884207D3401A64214843890002F01D
:1018600093FEC0B210BD002010BD70B501218902E9
:1018700004464E003046FFF763FF032C1ED00720BE
:10188000FFF76BFFFFF777FF85B200213046FFF7C8
:1018900057FF032C14D00720FFF75FFFFFF76BFF04
:1018A000401985B2FFF763FF28090001012C09D018
:1018B000022C0AD0032C0BD0002070BD0920DFE7DA
:1018C0000920E9E7FFF76CFF70BDFFF7AEFF70BDC1
:1018D000FFF7BCFF70BD0000C0800020A90600001B
:1018E000CFF9FFFF0000F242000090420000604389
:1018F0000000C0418FFBFFFF70B5EFF310850120A2
:1019000080F31088264802F045FE0446002D1DD0C5
:10191000012080F31088002C23D020462038C08B73
:10192000204988421DD16189208902F039FE0500D5
:101930000ED021461031A38962892089A84700284A
:1019400006D001280DD002280BD105E00020E0E7E9
:10195000204602F02BFE04E0114821460C3002F034
:101960002BFEEFF31084012080F310880C480068F0
:10197000002802D1012002F025FE002C03D0012016
:1019800080F3108870BD0020FAE710B5BC2106482E
:1019900002F01EFE0549012002F020FE10BD0000ED
:1019A000A80508003883000004060800F918002084
:1019B00070B516460D46104602F016FE002869D096
:1019C000340A304602F010FE012812D0A87A1E28F0
:1019D00011D029460A310E2845D019DC801E03009B
:1019E00002F008FE0B255829582D58315839583D1A
:1019F0005800022070BD3146274802F001FE002148
:101A0000204602F003FE0221304602F005FE41E0CE
:101A100018283CD006DC102819D012282BD0162804
:101A200038D130E0522822D0D22833D127E02046C6
:101A300002F0F8FD2EE0204602F0FAFD2AE02046F2
:101A400002F0FCFD26E0204602F0FEFD22E02046EA
:101A500002F000FE1EE0204602F002FE1AE02046E0
:101A600002F004FE16E0204602F006FE12E02046D8
:101A700002F008FE0EE0204602F00AFE0AE02046D0
:101A800002F00CFE06E0204602F00EFE02E02046C8
:101A900002F010FE002070BD01280000F3B581B0F7
:101AA00001980C460102CA1D0E310223344802F08F
:101AB00007FE047001990546022732488E00002C6B
:101AC00006D0042C16D0062C10D0072C3FD108E0ED
:101AD000815905224968897C114069708059C77312
:101AE00035E0084602F0F2FD687030E080590F21C1
:101AF000C1732CE0044680594068417C012902D121
:101B0000007E01280FD0019802F0E6FD0121002897
:101B1000A0590BD04268D07D00281CD001281AD0D3
:101B200004280DD00FE0002068700DE04068C27DF1
:101B3000022A01D0042A06D1007C02280BD102E03F
:101B4000107C022807D06F70A1590320C873284663
:101B500002F0C8FDFEBD6970F6E701460A78012073
:101B6000042A01D9002070474A78002A01D0012AAE
:101B7000F8D10A79082AF5D849790829F2D87047A6
:101B8000021C000028050800FFB589B00D460020A2
:101B90006946059008720B98000A009002F09CFDBF
:101BA00007460B9802F020FD00287DD00B9829787D
:101BB000000A8400764E01295ED0042904D006294B
:101BC00043D0072963D120E0687800281BD0305922
:101BD00010224068A91C02F0D1FC002F06D0315918
:101BE000C87B032807D0042808D050E03059C07BB8
:101BF000032803D04BE00B20C87348E00521009870
:101C000002F076FD43E00120B6E03059C07B0E289B
:101C10003DD1009802F05AFD002103E02A18401C33
:101C20009170C0B21028F9D3688A694608832946A2
:101C300006A808221431023002F0A0FC06ABAA1C50
:101C40003946009802F05AFD21E03059C07B0F2838
:101C50001DD1AA1C0A21009802F056FD002F04D0C5
:101C60003946009802F056FD11E000231A46394625
:101C7000009802F055FD0AE0012F08D10B9802F000
:101C8000B3FC01281CD0002801D002200590684632
:101C9000007A002811D002AA0521009802F034FD34
:101CA0006846027A602000E007E00243684602725C
:101CB00001233946009802F033FD05980DB0F0BDC0
:101CC0003059C07B0228E2D16878002851D0022127
:101CD0000B9802F0A1FC305907224068A91C17306C
:101CE00002F04CFCE878002804D130594068407C70
:101CF00001283AD0009802F019FD002837D0297A3F
:101D0000009802F019FD002833D0009802F01AFD67
:101D10000121009802F01CFD00282CD030594068A9
:101D2000417E00292BD0042929D0C17E027D11409B
:101D3000C17630594068017F427D11400177684685
:101D4000007A0028A7D13059022142680098173242
:101D500002F0DAFC305941684031897B002913D008
:101D600004210098FFF79AFE91E7022004E0062084
:101D700002E0082000E00320694608728BE700219A
:101D8000C17630594068D9E70B21C1737FE7000065
:101D900028050800F8B50D46064681002B48EA885C
:101DA0004458521C20686B89018F294F5143009180
:101DB000014640314A89C989511A8AB2991A89B2B1
:101DC000B94214D29A4212D0294602F0C7FC2D899A
:101DD0002049009802F096FB2818801C4034E082CD
:101DE0003002401C80B2042102F016FCF8BD28210C
:101DF000304602F0B9FCF8BDF8B505468700134837
:101E00000C46C059C9880068114E024640325389B9
:101E1000D2899A1A92B28B1A9BB2B34211D20B4E4C
:101E20008A420ED002F0A6FCF05905225F30611CF8
:101E300002F0A4FB2802401C80B2052102F0ECFB5A
:101E4000F8BD2821284602F08FFCF8BD4C0308009D
:101E5000FF7F00001027000070B5044600780025C1
:101E60000D2801D00A2200E002225A494B7A002BA9
:101E700006D00D2804D0637C032B01D0432551E00C
:101E8000097A8A4339D10D2809D00E2802D00F28AB
:101E900003D134E0607C032804D3402542E0607C19
:101EA0000328FAD8A07C0428F7D20A2908D0607C3D
:101EB000012822D0022820D06078032809D811E018
:101EC00002F05EFC012806D16078032803D00028C8
:101ED00001D0492526E002F053FC002802D16078A9
:101EE0000228F6D83020035D22462046E17C3132BC
:101EF000143000F019F8054614E0422512E002F013
:101F00003FFC012807D16078052804D1A01D02F00C
:101F10003DFC0028DDD002F033FC002802D16078BF
:101F20000228D6D8284670BDFFB5002086B0012112
:101F30006A461170044605910021002C06D0089DC8
:101F4000099A1F239A4234D9402032E01C23069D6F
:101F5000079AF7E76B185E78330002F04BFB1D26FB
:101F600010101010101010101026262626262626D7
:101F70002626262626261010101010102600059B57
:101F800003E06F46FF5CB74204D05B1E5BB2002BE0
:101F9000F7DA03E0002B01DB4A2006E0059B6F46E1
:101FA000FE54059B5B1CDBB205936B5C491C591806
:101FB000C9B2914201D20028CCD0914202D04A202D
:101FC0000AB0F0BD641CE4B2022CF9D20028B3D0F0
:101FD000F6E7000098050800F8B50C469449164647
:101FE00009680125002702228B1C312873D012DCDE
:101FF0000C2874D008DC012821D0022840D0072802
:102000004FD00B2869D156E010287FD0112876D008
:102010001228F7D18DE00123412871D008DC322845
:102020006FD035286ED036286DD04028EAD1B1E087
:10203000422869D0432868D04428E3D1CFE0062263
:102040007C497D4802F0A8FB002808D006227A4986
:10205000304602F093FA062020700020F8BD744844
:1020600001680878C00738D02078062801D2277088
:10207000C2E006229831304602F080FA06200EE0D7
:102080000A786B48920728D522783E2AEFD3054676
:102090004A7E5A31304602F071FA2868407E20703C
:1020A000A7E00878400718D520780228DFD3887C7D
:1020B0003070587C78E00A785D4812070DD5227898
:1020C000202AD4D30546CA7D1A31304602F056FA8A
:1020D0002868C07DE3E735E001E077E016E00A78A4
:1020E0005348D20672D52278202AC0D305460A7EEC
:1020F0009831304602F042FA2868007ECFE70EE0C1
:1021000054E028E034E03BE058E060E008788006E6
:1021100070D520780428AAD30422091D23E008786A
:10212000400667D52078002866D0087D08E0227038
:102130005FE0087800065DD5207800285CD0487DF7
:102140003070F4E70888C00554D5207804288ED371
:1021500004220C3107E0088880054BD5207804283C
:1021600085D304220831304602F008FA042096E7AD
:10217000088840053ED5207800283DD0887D36E08F
:102180000888000536D5207802288FD3087C307067
:10219000487C09E00888C0042CD52078022885D323
:1021A0008231087F3070487F7070C0E708888004F3
:1021B00020D5207800281FD0A03117E008884004DF
:1021C00018D52078002817D0A1310FE012E0088838
:1021D00000040FD5207800280ED0A23106E0086850
:1021E000C00307D52078002806D0A33108783070C6
:1021F000237000252846F8BD0425FBE770B50F487D
:102200000F49C405228880252A4322800D4A53891C
:102210001B0701D4401EFAD20B4A0120106006228F
:10222000054802F0ABF92088A843208070BD00006B
:10223000C0060800383E030058160800A0860100BA
:10224000D47F04002000005000800040F0B5554DC0
:1022500085B00026686937460190FEF7C2FB002171
:10226000514C002802D12079022800D101914F4819
:1022700002684F48002A0FD10278002A0DD04D4B3A
:102280000122DA63DA6B002AFCD101229207D269BB
:102290001923DB019A420ED3017002F083FA002861
:1022A0007DD0E0780126002879D005200007808ABB
:1022B000C00701D0042672E002F0FAF800286ED1BF
:1022C0003D4800683F2804D12079002801D12869C1
:1022D0000190A17801A802F06BFA00285FD0A178E4
:1022E00001A802F0F7F8002859D0334800683F28C9
:1022F00003D102F063FA002851D02C480068AA28C4
:102300001DD0972007210125AD07EA6B920A9202A2
:102310007F1C3A43EA63EA6B284B80021A4002436F
:10232000EA63E86BC002C00A49050843E8631F4836
:1023300004260068002807D0AA280ED01CE02048F8
:10234000FEF792FD0321DEE701986421C00202F04E
:10235000D9F8401E0BE001210CE0019801F0E4FFE8
:102360001849096801F04EFF01F0E5FF009021795E
:102370000029F0D102F028FA1348C06A8047286B80
:102380000004C00FFBD011480168C905FCD502F05C
:1023900021FA0520000701898022914301813046FE
:1023A00005B0F0BDA0020020C6060800081608000F
:1023B000FC150800C000004060010020FF03E0FFA2
:1023C00001120000141608001C070800000200405B
:1023D00010B50124A407A06BFEF752FD624902F07C
:1023E00091F827221201511A00D101215F4A506051
:1023F0001160206B082188430843206310BD38B565
:10240000002000905A4908200880052424072188CC
:10241000302001432180218803221143218002E0E2
:1024200000BF00BF00BFA18A0906F9D561898908EC
:10243000890061814F494A88520852004A802188A8
:10244000814321802088800880002080A08A400766
:1024500001D5FEF7C5FB2089802108432081208A11
:10246000042188432082A08A8007FCD54248410588
:102470000268D20202D40A69520702D4009A002AE2
:10248000F6D038BD10B502F0ABF902F0AFF910BDCF
:1024900010B502F0B1F905200007418A802291436E
:1024A0004182334801894908490001813348006865
:1024B0003F2801D102F0A6F901208007816904229A
:1024C0001143816102F0A4F902F0A8F902F0ACF91D
:1024D0002B480068AA2802D11420FEF727FC2949BE
:1024E0000020087010BD10B502F0A4F910BD10B5A1
:1024F00001208007008A000707D5234901200870C2
:1025000002F09EF91F490320087010BDF8B51F485E
:10251000008887061848BF0E44681848C030006B12
:102520000078002802D1384602F090F91848008956
:102530000125C005134E002807DA20060DD5E00757
:102540000BD0384602F088F903E0200605D5E007F5
:1025500003D00D48456002203070200402D5E0050C
:1025600000D53570F8BD0000710200004000004049
:1025700000330050200000500002004060010020A5
:10258000081608005E160800349000200020005055
:10259000002C00500A7902704A7942700B888370CF
:1025A0001B0AC3708A79027149884171090A8171D5
:1025B0007047F8B514460F461E4605464288018806
:1025C0000623204602F07CF80446287902F04AF9F6
:1025D000208027716680204602F084F8F8BD70B52F
:1025E0001446428800790D4601020C3104232E481E
:1025F00002F066F8002D01D0132100E012210170D5
:10260000448002F06FF870BD0A880270120A4270AE
:102610008A788270CA78C2700A7902714A794271E6
:1026200089798171072070474278037812021A4332
:102630000A8082788A70C278CA7002790A714279F7
:102640004A71807988710720704710B500F016FA3A
:1026500000F02CF800F0E2FA10BD70B50646154601
:102660000C46372001F0C0FF022805D1E2B2372323
:102670002946304602F0FCF81C2001F0B5FF022884
:1026800005D1E2B21C232946304602F0F1F82020A1
:1026900001F0AAFF022805D1E2B2202329463046E4
:1026A00002F0E6F870BD00000D30000010B50C21FE
:1026B000064802F0E3F80649372002F0E5F8002169
:1026C000372001F0A9FF10BD012070473C90002089
:1026D000984C0020F0B589B00521C90268460184F4
:1026E000C91C8182DB490183491E8183DA4D0320A5
:1026F000EB80FF210A22B93100900191A818002334
:102700003721074602F0C6F804007DD10126019763
:102710000096688908AB0222102102F0C1F804007B
:10272000F3D16889CD4A102102F0C0F80400ECD141
:1027300003A800960190688905AB0222132102F0DC
:10274000AFF80400E1D102AFC548C44B0197009037
:10275000688910331022A02102F0A2F80400D4D11D
:10276000C0496846007A48706846407A88700A46D0
:1027700068461321808902F099F80400C5D1092028
:10278000019700900222688906AB114602F088F892
:102790000400BAD104A800960190688907AB022210
:1027A0000E2102F07DF80400AFD1AC4A68462B3A06
:1027B0000E21008A02F07AF8040025D103A80096C1
:1027C0000190688905AB0222132102F069F8040028
:1027D0001AD1A348A14B0197009068892033102299
:1027E000A02102F05DF8040075D19E496846007A88
:1027F00008756846407A48750A46684613321321C0
:10280000808902F053F800E065E0040063D10920FC
:10281000019700900222688906AB114602F040F849
:10282000040058D104A800960190688907AB0222E1
:102830000E2102F035F804004DD1884A68461C3A52
:102840000E21008A02F032F8040044D103A8009659
:102850000190688905AB0222132102F021F80400DF
:1028600039D17F487D4B0197009068893033102221
:10287000012102F015F804002DD17A496846233170
:10288000007A08716846407A4871CA1C684613216C
:10289000808902F00BF804001DD1092001970090F7
:1028A0000222688906AB114601F0FAFF040012D13A
:1028B00004A800960190688907AB02220C2101F060
:1028C000EFFF040007D1654A68460D3A0C21008AE3
:1028D00001F0ECFF04466889002101F0EDFF002CB7
:1028E00003D10121372001F097FEE9880123372227
:1028F0005D4801F0E5FE047001F0F4FE002009B02F
:10290000F0BD70B5544C0D4662802380E38048884A
:1029100001F0D8FF2071688820816089012101F0D1
:10292000CBFF0221372001F077FE4F48E1880223D8
:102930003722801E01F0C4FE6189891C018001F0EC
:10294000D1FE002070BD10B5434C0A4660890121BC
:102950000A3080B201F0AAFF608900210A3082B2F9
:102960002046FFF73CFE002010BD10B53C203A4C3D
:10297000435C60890A46801C80B2194601F096FFCC
:1029800060890021801C82B22046FFF728FE0020CB
:1029900010BD70B5304D0C46688909882B46C21CA5
:1029A0001B7991422ED0821D914228D12F4D6088F3
:1029B00029680022401828602046A178083000F0DD
:1029C0008AFD7D26F6016868F2103146801801F014
:1029D00099FD08466960217A612903D037E0002219
:1029E000184632E002F000F96868301A02F002F985
:1029F0001F490888FE22C0431043088027E0C21DFB
:102A0000914203D1A0790128E9D020E002460A32A0
:102A1000914204D1217A174800F0F6FC17E00B3000
:102A2000814214D1207A012809D1607A002806D188
:102A300011480078012800D0022001F0BEF8A079EA
:102A4000012804D121882879002201F041FF0020CB
:102A500070BD0000022900003C900020D34C0020F3
:102A6000090200004850002003DC000048900020CC
:102A7000203000509F1608009D16080010B5122146
:102A8000244801F0FBFE24491C2001F0FDFE00213A
:102A90001C2001F0C1FD10BD30B50346012000210E
:102AA00003241A46CA40D20704D04D006D1C2246AA
:102AB000AA401043491CC9B20929F2D330BD0246CD
:102AC0000020122901D98D207047062A06D0072A36
:102AD00007D0082AF8D10729F5D170470829F2D183
:102AE00070470629EFD3704770B50A4C0546218818
:102AF00002231C22094801F0E3FD058001F0F2FDEC
:102B0000E088002101F0D8FE01211C2001F084FDA5
:102B100070BD000060160800704E002004700000B8
:102B2000FEB53B4E1C2070801D4617463446088873
:102B3000FFF7B2FF02903748334601900833132263
:102B400002A90097A01D01F0C9FE040008D1F08879
:102B5000002101F0B1FE044601211C2001F05CFDC2
:102B600001231C2229462C4801F0AAFD047001F023
:102B7000B9FD0020FEBD70B50C4625490B802078BC
:102B8000082814D8CA880831415C51188DB2822DAA
:102B90000BD06178FFF793FF010009D16D1C6178BC
:102BA000A8B2A21C01F082FE08E0822100E081218F
:102BB000194B17485B1CDA1CFFF7FBFC002070BDAB
:102BC00070B51D460C46088801F07CFE104AFF28AF
:102BD0001071158009D0A178D08801F06DFE022116
:102BE0001C2001F019FD002070BD0B4B89219B1C9E
:102BF0009A1C0748FFF7DDFCF5E710B5044A180AF0
:102C00001279904202D10888FFF76EFF002010BDB4
:102C1000601608005C4D00200170000010B50E2108
:102C20002B4801F02BFE2B49202001F02DFE002126
:102C3000202001F0F1FC10BD70B5254D0646298815
:102C400004232022244801F03BFD0446287901F0AA
:102C500009FE2080A670204601F044FD70BD7CB5C1
:102C600004461B4E1C48318808232022C01E01F058
:102C700027FD0480054600241FE03019817A89076A
:102C800008D56200012152195180817AFD2211403C
:102C9000817203E0002061004919488060008019BA
:102CA000C0886A46801C80B201A901F01DFE009810
:102CB00029190078641C8871E4B2307BA042DCD80A
:102CC000284601F00FFD0121202001F0A5FC7CBD6C
:102CD00074160800044F002006800000FFB587B07E
:102CE0000F46072069460872BD4C20206080387866
:102CF0000025022856D82073002646E0B8194078EF
:102D0000A11905918872012805D16946087A082120
:102D1000084369460872207B012805D96946087A6C
:102D20001021084369460872099800907000AD4967
:102D3000001901910390801D0023052202A901F0D2
:102D4000CDFD05001CD103980021C08801F0B4FD21
:102D500005460598807A012812D112206946087428
:102D6000039804ABC0880122401C80B2002101F00E
:102D7000C1FD03989C49C088801C80B201F0C0FD51
:102D800007206946761C0872F6B23878B04202D93C
:102D9000002DB3D007E0002D05D10121202001F046
:102DA0003BFC00E081250123202290480A9901F094
:102DB00087FC057001F096FC00200BB0F0BDF0B56B
:102DC00085B00D4600206946854E088133802888ED
:102DD00001F078FD3071FF2801D0002452E0834BD0
:102DE00089215B1C9A1C7E48FFF7E3FB52E06100DF
:102DF0007B482A1903920E180491F0880327801C3F
:102E00000A3280B2012101F051FD75480019817A22
:102E1000012920D1E9780427012915D104996B46AD
:102E200049198A881A81898801290DD10321817263
:102E30000398017A807A814206D0F0880021801CB4
:102E400082B26748FFF7CBFBF08802AAC01C80B2B1
:102E5000022101F02BFD6248007B01280CD9E00023
:102E600041190C316846FFF795FBF0886A46C01996
:102E700080B2072101F01AFDA978F08801F01CFD4D
:102E8000641CE4B25648017BA142B0D80221202044
:102E900001F0C2FB002005B0F0BD70B5504D0C46EE
:102EA000287901F0DFFC2188884221D1A078297B94
:102EB00088421DD2E17864291AD840004019C088A0
:102EC000E21C801C80B2012101F0F0FCA0782946B0
:102ED0000A31415C890709D540004019C0880021AA
:102EE000801C82B22846FFF77AFB04E08A2000E0CB
:102EF0008120FFF7A1FE002070BDF8B50F463849CC
:102F0000802500200A7B09E044006118C9883B88BD
:102F1000C91C8B4200D10025401CC0B230498242FE
:102F200001D9802DF0D0401EC6B2002D0FD1787A85
:102F3000397A00020843694608800AD0012808D07F
:102F400080252748398800792A4601F0C1FC0020F5
:102F5000F8BD234C70000019C0880A46C01C80B21E
:102F6000022101F0A3FC6846008801281FD0A019A7
:102F7000817AFD2211408172F8790028E1D0184849
:102F80000623018819482022801D01F099FB044680
:102F90001348007901F066FC208069460988A17019
:102FA000090AE1702671204601F09CFBC9E7A019CF
:102FB000817A02221143DEE710B50878122802D187
:102FC0004878FFF739FE002010BD10B5044A180AF2
:102FD0001279904202D10888FFF741FE002010BD0F
:102FE00074160800C04E002001020000018000009D
:102FF00038B50124684604700C21384801F03EFCC5
:10300000364D6946EC702A1D352001F07FFC002802
:1030100000D02C7100F0BAFB3149322001F034FCB1
:103020000021322001F0F8FA38BD10B500F085FC1F
:1030300010BD10B5294802238078322201020E31DA
:10304000284801F03DFB012101701321417001F07E
:1030500049FB10BD10B5044620482C23807832224D
:10306000010220480E31801E01F02AFB014620306B
:10307000047200224272084601F034FB10BD10B504
:10308000502332220D21184801F01AFB044600F0AB
:10309000BBFB204601F026FB0221322001F0BCFAE6
:1030A00010BD114810B5012332220D210B3801F05B
:1030B00007FB0221017001F015FB10BD10B500F0F7
:1030C000FBFC10BD094B10B59A4201D91A4602E02B
:1030D000002A00D1012201F01FFC10BD8416080057
:1030E000644F0020043800000E34000030750000EA
:1030F00010B5104601F078FA002809D101233222D8
:103100000D21654801F0DCFA0121017001F0EAFAB5
:10311000002010BD70B5087815460F282DD008DCAA
:1031200001280DD0022835D003281CD00E2836D116
:103130001FE0102825D0112823D012282FD129E0F4
:10314000487800282BD15448222332220D21801C9C
:1031500001F0B6FA04460146284600F00CFC204671
:1031600001F0C0FA1BE04878002818D100F017FCE5
:1031700015E0487800F021FC11E0487800F01EFCD2
:103180000DE04878442802D000F024FC07E000F06D
:103190003AFC04E04878442801D100F072FC002099
:1031A00070BD70B51D4616460C46104601F01CFA5F
:1031B000022821D1280A394DFF28A8701AD03221BF
:1031C000374801F01DFA0521304601F025FA204666
:1031D00000F0FEFA21882980617A69712146062271
:1031E0000A31A81D01F0CAF90020FFF733FFFFF7ED
:1031F00065FF01E0FFF743FF002070BD10B51046EA
:103200000A780A2A0BD14978002903D0084600F031
:10321000D2FB04E0052101F0FFF900F0CDFB002016
:1032200010BD10B5104600F079FB002010BD10B5A0
:103230001A4801238078322201020E31194801F028
:103240003FFA0021017001F04DFA002010BD10B5C9
:1032500010460C4601F0C8F9012808D12078002852
:1032600005D1FFF7E2FE002801D000F0AFFB0020FF
:1032700010BD10B50C46204604220BA10C3001F005
:103280008BFA002806D10622A11C094801F076F924
:1032900000F0F8FB002010BD023400008416080086
:1032A00003C80000103800000303E7FE0000000020
:1032B00091160800F8B5069F026004464160481C5C
:1032C0000D460021E160216150431E46A0600321AC
:1032D00001F028FB6061002020210855AF4206DA8A
:1032E000BE4204DC002E02DDE761A661F8BDFEE708
:1032F000F8B515460F46044600F0C4F96168081A8F
:10330000002811DDA84200DAC5B22069A26841197F
:103310008E1A6169002E08DC08182A46394601F029
:103320002DF9206940192061F8BD0818AD1B2A4607
:10333000394601F023F9E9193246606901F01EF9B6
:103340002661F8BDF8B514460E46054600F09AF918
:10335000002822DDA04200DAC4B2E868AA68011998
:103360008F1A6969002F08DC09182246304601F0DF
:1033700005F9E8680019E8600CE00918E21B30461E
:10338000009201F0FBF8009A696990193A4601F041
:10339000F5F8EF600020305501E00024347020463D
:1033A000F8BD70B50D46044600F06CF9A16988427D
:1033B00007DC20342078012803D100202070012070
:1033C000A87070BD70B5002800D0FEE7D54C002570
:1033D0002246104625701021153000F05DF90100DD
:1033E00004D022461046D04B15300AE0207802283F
:1033F00003D0012801D0A57070BD0021CA4BC94A75
:103400000846FEF718F870BD022903D0012900D143
:10341000017070470021FBE770B5C24C16460A34B4
:103420000A460346257831462046FFF7EDFF204641
:1034300019464230FFF75CFF21460846423000F053
:1034400060F96078012802D02078A8420AD072B6CC
:10345000B4488178002904D1012181700020FFF750
:10346000B1FF62B670BD70B5AE4900284A7802D08F
:10347000022806D0FEE7AB4808210D30FFF7CCFF4D
:1034800020E0A84D00200D3500E0401C295C0029FB
:10349000FBD1C1B2A3480D30FFF7BEFFA34C7D2680
:1034A0006068F6013146C83001F02CF86160287878
:1034B000612807D188B201F097FBA088301A80B24A
:1034C00001F098FB974A9A4B521C104608210C3089
:1034D000FDF7A4FF70BD70B513000A4625D172B682
:1034E000904CA178002902D10121A170E170014620
:1034F0008C482830FFF7FCFE8A49C91D0846213058
:1035000000F0FFF8874E0025F61D7078012804D1E1
:10351000022000F052FB65717570E078002803D03E
:10352000E5700020FFF74EFF62B670BD7D4808B51C
:10353000283000F09EF800281AD17A484C3000F06C
:1035400098F8002814D17B4800907A4B7548C83B06
:10355000012279492830FFF7ADFEFF205F3000904F
:103560007048FF2196230122F5314C30FFF7A2FE6F
:1035700008BD6C4A10B5521C10466D4B08210C302A
:10358000FDF74CFF10BD67490020C91D48708870C9
:1035900001220A70C91C487088700A70704710B503
:1035A00062490A68521E0A600B680022002B01DA89
:1035B0000A6004E00968122901DA5A498A71002870
:1035C00001D001F0B5F910BDF8B5564C20790028AE
:1035D00040D1E01D007801283CD1544E0127A0794C
:1035E00000281ED10321152001F09CF9050018D0F8
:1035F00001464C4814224C30FFF7A4FE010020D0B5
:103600003068401C30603068122800DBA7714B48DE
:1036100000904B481B230288284600F0FDFA002842
:10362000DDDC40490A3108464230FFF7BAFE3D482A
:103630000A30807801280DD172B6A078002804D015
:1036400007E0284601F074F9EBE7A7700020FFF7C8
:10365000B9FE62B6F8BD10B532480121483001709C
:1036600000243E380470022000F0A7FA2D4844716F
:1036700010BD002804D04069002801D00120704707
:10368000002070470269C1688A4201DB501A704706
:1036900080688018401A7047F8B584462148002594
:1036A0000A308378477801262C46BB4202D017782F
:1036B000002F06D01470847044700078012807D061
:1036C0001DE0012B02D002231370F4E71670F2E71D
:1036D00014480A4661462830FFF734FE1149054672
:1036E000C91D08462130FFF75CFE0E4FFF1DB8785C
:1036F000012804D100F061FAF81F4671BC70284619
:10370000F8BD70B50D460446FFF7BCFFE16988427D
:1037100006DD20342078002802D101206870207056
:1037200070BD000098160800C5330020C48000203A
:103730006734002052030000AA0500009F350020D6
:1037400046170800F8B5E84C1F206070042222706C
:10375000E6A1A01C00F012FF00206070A51D16223B
:10376000A81CE4A100F00AFF1726A01C0671092777
:103770006F701C20207018351622A81CDDA100F0E7
:10378000FDFE2E706F7018206070F8BD10B500F04F
:10379000FDF900F021FB00F008FCFFF7D3FF00F07B
:1037A0000FFDFDF7BDF8D9490120087001F028FA96
:1037B00010BD10B5D64801238078322201020C31A9
:1037C000D44800F07DFF0121017000F08BFF10BD97
:1037D00070B5054600F0E2F9CD4C208800F00AFBF8
:1037E000CD4800230178CD480122007800F0E4FBA9
:1037F000208800F0F2FCFFF7DCFF688800F0EEF9AB
:10380000C7490020087070BDF0B5044693B0082089
:1038100012900E202070002565702020A081E0818C
:1038200007202074012060741C20E07426461F21AC
:103830002036224631741432511E0B20119201F0B1
:1038400065F8002805D00422E274A8A1119800F0C0
:1038500095FE224631321746511E0C2001F056F8D3
:10386000002805D02A463574A0A1384600F086FE0F
:10387000E07C1A21081A05062D0E3FD03E2069462D
:10388000087001AA022001F041F8002806D0162293
:103890006846027097A101A801F050F868462746D3
:1038A000007815377E1C002818D0A84200D328467F
:1038B00069460870E27C1199401C5054E17C092053
:1038C000C855E07C69460A78801901A900F056FEC7
:1038D00069460878E27C801C1018E074E27C11993B
:1038E00009205054E17CFF20C855E07C8DA180194F
:1038F000129A00F043FEE07C0A30E07413B0F0BD91
:1039000070B50D461446014604233222884800F063
:10391000D7FE0580847000F0E5FE70BD10B500F0A4
:1039200063FE01217E4A0328117003D0052801D0CF
:10393000042801D1FFF7A3FB10BD70B5744D00241E
:10394000E878052814D2012809D002280CD00328D1
:1039500002D0042808D105E000F00CF904E000F0E2
:103960003CFA01E000F012FBE878401CE87000E04F
:103970000124204670BD032008700A2048700020F2
:1039800048820875487508220A8310224A83888372
:103990006422CA8320225054A020C882704710B5E8
:1039A0000121322000F038FEFFF73FFB002801D054
:1039B000FFF765FB10BD70477047704710B500F00A
:1039C00013FE022801D1FFF75AFB10BD10B5FFF717
:1039D00056FB10BD10B50221322000F01DFE14234D
:1039E00032220D21534800F06BFE00210174112298
:1039F00002704170012181740A2181810521C181F8
:103A000000F070FE10BD4B4810B51E2332220D2170
:103A1000801C00F055FE0446012020772046062237
:103A200045491D3000F0AAFD092121826182202133
:103A3000218361830021A1826170232001556420CC
:103A4000E082FF208130A081FF206130E0811220E0
:103A50002070AF22920032213848FFF733FB204616
:103A600000F040FE10BD334810B5012332220D2175
:103A70000C3800F025FE0221017000F033FE00201A
:103A800010BDA7E72B4810B5012332220D210C38B9
:103A900000F016FE1121017000F024FE10BD254833
:103AA00010B5012332220D210D3800F009FE01214D
:103AB000017000F017FE10BD1D4810B50A23322218
:103AC0000E210B3000F0FCFD0A2101704180818045
:103AD0000021C1807D21C900018100F003FE10BDDD
:103AE0007047704770470000081708000303E7FE9F
:103AF0000000000044413134353830205350532009
:103B0000536D6172744C6967687400009D160800FB
:103B100084160800013000004B1708004817080001
:103B20009C160800E7FE80EACA00000100000000C1
:103B3000033800000F3400009116080003C800008D
:103B400010B510460C4600F04FFD012809D1322275
:103B500001231146900200F0B3FD2178017000F0BE
:103B6000C1FD002010BD0888014908800020704771
:103B70004617080010B5022332223721154800F0FD
:103B80009FFD0021018000F0ADFD10BD10B5FFF7D5
:103B9000CDFCFFF7EEFCFFF7F6FC10BD10B53721AA
:103BA00004233222880200F08BFD322101800A4971
:103BB0000988418000F096FD10BD10B50446054807
:103BC000012332223721801C00F07AFD047000F0BE
:103BD00089FD10BD02DC0000841608001121821F3F
:103BE0000C2A05D2754A41008A18203A1421515EE8
:103BF000734A508088B21080411C083A11607047A7
:103C000010B5FF2191316F4800F0E2FC6D480021B2
:103C1000001F4170017010BDF0B56A4D9646024616
:103C20002D1F68782E1D07018C46BC19E17B0029E9
:103C300002D00020C043F0BD0121E173F251614682
:103C4000A17371466160A3810599A160411CC9B24D
:103C500069701929EFD300216970F0BD192802D3CA
:103C60000020C0437047574900014018C07B70478F
:103C700070B5044654482C23807832220102052076
:103C8000491D800200F01CFD050016D00420A8800C
:103C9000207BA871A0882881A27B6A8128460C30ED
:103CA000216800F06BFC284600F01CFD0020E0734A
:103CB000A268002A01D003CC904770BDF8B5414CF2
:103CC0000146241F2078251D00014019C07B0027D4
:103CD00000281CD03D488088012818DD461A14E0D1
:103CE000207800014019FFF7C3FF20787F1C401C9B
:103CF000C0B2761E2070192801D300202070000663
:103D0000000D4019C07B002801D0002EE8DC3846A9
:103D1000F8BD30B42D49122289882948541A294AFD
:103D2000274B121F08389578083B40681B68002D08
:103D300001D0C81A401C012800DA01209C4201DD94
:103D4000012100E00021917030BCC0B2B6E730B470
:103D50001E491B4A8988083A1223126800205C1AFF
:103D600094420EDA112904DA1649091F89780129CB
:103D700007D0981A02D1122A00D0012030BCC0B25C
:103D80009CE730BC704770B5114C00202178114E73
:103D9000054601290CD03268012A08D1022906D132
:103DA000FFF7B7FF35602178022900D1257070BD7B
:103DB000FFF7CDFF02213560217070BDFC4F002060
:103DC0008C50002054900020841608001E05080026
:103DD0003490002038900020704710B51C21022339
:103DE0003222880200F06CFCFF217431018000F067
:103DF00079FC10BD10B50446042332221C2105486D
:103E000000F05EFC0480012181700021C17000F08F
:103E100069FC10BD03700000FEB510460D4600F0B1
:103E2000E3FB01287ED12878002878D110233222A4
:103E30001C21434800F044FC0446002020700D2063
:103E4000607002463FA1A01C00F098FB204600F0E5
:103E500049FC152332221C21394800F031FC01268F
:103E6000044606701220607002463AA1A01C00F0C1
:103E700085FB204600F036FC0B2332221C21304803
:103E800000F01EFC044606202070082060700246E8
:103E900035A1A01C00F072FB204600F023FC0B278C
:103EA0000E2332221C21264800F00AFC044605207D
:103EB000207067703A462FA1A01C00F05FFB2046DF
:103EC00000F010FC0E2332221C211D4800F0F8FBEC
:103ED00004460420207067703A4629A1A01C00F017
:103EE0004DFB204600F0FEFB0A2332221C21144821
:103EF00000F0E6FB04460820207007206070A670E2
:103F0000D22168460180F901418031028180062278
:103F10006946E01C00F032FB204600F0E3FB012381
:103F2000322200E007E01146900200F0C9FB297838
:103F3000017000F0D7FB0020FEBD0020704700009C
:103F40000270000044415F536D6172744C69676890
:103F500074000000444131343538305F536D617274
:103F6000744C696768740000123456FFFE9ABCDE18
:103F700000000000765F332E3135302E312E3500B3
:103F8000765F332E302E372E3338310010B5202196
:103F900003233222880200F093FB0121017041705B
:103FA0000021817000F09EFB10BD10B50120FDF7CF
:103FB0005CFC5849087010BD10B504465548C170E6
:103FC000027143711C2332222021534800F078FBF8
:103FD00052490123098801808370C37000228280C6
:103FE000C280047242728472C2724D4C8481C2815A
:103FF000042404744274837400F074FB10BD70B523
:10400000444C01256570E078002803D0617920795F
:1040100000F016FDA570434C3221204600F0F0FA66
:10402000C82232212046FFF74DF870BD10B5044676
:104030003948042332222021C01C00F041FB3749BB
:104040000988018000218170C47000F04BFB10BD15
:1040500070B50120FDF709FC2E4D044628788442F6
:1040600002D02046FFF7E2FF2C70E878002803D04A
:10407000052C01D2FFF7C3FF70BD70B5254C00259C
:104080006570E078002803D06179207900F0FAFCAF
:104090003221244800F0B4FAA57070BD70B50D4609
:1040A000FDF7E3FB1B4E04463078844202D02046E5
:1040B000FFF7BCFF3470F078002808D0AC4201D282
:1040C000FFF79DFF6D1DAC4201D9FFF7D6FF70BD14
:1040D00010B510490A22C88012483221401EFEF74E
:1040E000F1FF10BD0F4810B53221401E00F088FAD4
:1040F00010BD10B50748C178002906D08178012984
:104100004179007902D000F0BDFC10BD00F098FCB0
:1041100010BD000048170800028000008416080047
:10412000AD27000002C8000010B532220C46012362
:104130001146900200F0C4FA2178017000F0D2FA22
:10414000002010BD002070470020704710B51446B5
:10415000FFF77EFF1448214602881448FEF7B2FF9D
:10416000002010BD70B5124815460078002818D000
:10417000104C114911480D4E2278761C09780078B0
:10418000002A05D000F07EFC00202070142204E0FC
:1041900000F056FC01202070052229463046FEF72B
:1041A00091FF002070BD00004E17080001C80000FC
:1041B0004B1708004A1708004D1708004C17080055
:1041C000704710B50123322236210D4800F078FAED
:1041D0007321017000F086FA10BD10B50446362137
:1041E00006233222880200F06BFA048001218170DC
:1041F000AA21C1705521017100F074FA10BD0000B0
:1042000003D80000024670B54A40D30FDB074000D8
:104210002DD04A002AD0010E140E091900021202F4
:10422000400A520A8418E50104465443000A120A5F
:104230002E045043A4194219200CC543AA18120C8D
:1042400001257F39521CAD0352191204240400D0F9
:10425000521C104301D44000491EC2B20C06C009D2
:104260002018401C4008802A02D003E0002070BDC6
:1042700040084000002900DA0020184370BD70B5E6
:1042800002464A40D50F40004A00ED074008520858
:10429000002814D0002A12D0C40DD30D41020120F1
:1042A000C0055202490A520AE41A091812187D344C
:1042B000914201D3641C00E04900002C01DA002087
:1042C00070BD0023914201D3891A0343400849007D
:1042D0000028F7D100290AD0914202D10121C90753
:1042E00005E0914201D2012101E00121C943E0052D
:1042F000C018401900F063F870BD420005D04200BC
:10430000120E52428A4201DB00207047C90508188C
:104310007047C217C10F504010B54018CA07962306
:10432000002100F054F810BD10B50022962311466C
:1043300000F04DF810BD410040020122400AD205B4
:10434000090E80187F2901DA00207047962903DCC6
:104350009622511AC8407047963988407047C20F5C
:10436000D207400040080BD0C10D0723DB01C9185C
:1043700040020905400A1143C20840071143704733
:10438000002001467047CB0FDB07490010B54908F4
:1043900002460A4307D00A0D07240903E401090B6A
:1043A000121B002A01DC002010BDC900440F0C4381
:1043B000C100E018D205801800F001F810BD0029F6
:1043C00004DA401C490001D140084000704770B435
:1043D0000024050C05D11024000402D1002922D0AC
:1043E0001124050E01D108340002050F01D1241D4E
:1043F0000001850F01D1A41C8000002801DB641C92
:104400004000002908D020252E1B0D46F540A14074
:1044100000D00121294308431B1B0106DB1D000AB4
:10442000002B02DA002070BC7047DB0518188018DA
:104430000029F8DA401C4900F5D170BC4008400062
:1044400070470000064C0125064E05E02046E36853
:1044500007C82B4398471034B442F7D3FBF7F4FF57
:10446000145000204450002003B40148019001BDC5
:10447000551B020003B40148019001BD0F3B03002E
:1044800003B40148019001BDCF2B030003B40148E0
:10449000019001BDCB2C030003B40148019001BD84
:1044A0000990020003B40148019001BD1F210200E0
:1044B00003B40148019001BDC12D030003B40148BC
:1044C000019001BD0921030003B40148019001BD21
:1044D000C92D030003B40148019001BD2B690200FE
:1044E00003B40148019001BDEB31030003B401485E
:1044F000019001BD3D32030003B40148019001BDAC
:10450000D721030003B40148019001BDA73A03007D
:1045100003B40148019001BD913B030003B401487D
:10452000019001BD2F2F030003B40148019001BD8C
:10453000998F020003B40148019001BD938F0200DE
:1045400003B40148019001BDCD8C020003B40148C1
:10455000019001BD418F020003B40148019001BDEB
:104560002768020003B40148019001BD39680200C8
:1045700003B40148019001BDB780020003B40148B3
:10458000019001BD213B030003B40148019001BD2E
:10459000D33A030003B40148019001BDBF220200D9
:1045A00003B40148019001BDEB26030003B40148A8
:1045B000019001BD3524030003B40148019001BD01
:1045C0002F22020003B40148019001BDDD20030049
:1045D00003B40148019001BD533B030003B40148FB
:1045E000019001BD9D20030003B40148019001BD6D
:1045F000B326030003B40148019001BDFD3D030053
:1046000003B40148019001BDA528030003B401488B
:10461000019001BDD5AF020003B40148019001BD76
:104620003126030003B40148019001BDA1A5020099
:1046300003B40148019001BDE3A5020003B40148A1
:10464000019001BD87A8020003B40148019001BD9B
:10465000A7A9020003B40148019001BD93AA02007A
:1046600003B40148019001BD95AB020003B40148B9
:10467000019001BDF9AB020003B40148019001BDF6
:1046800069AC020003B40148019001BD17AD0200FE
:1046900003B40148019001BD77AD020003B40148A5
:1046A000019001BDF1AD020003B40148019001BDCC
:1046B00085AE020003B40148019001BD11AF0200B4
:1046C00003B40148019001BDB123030003B40148C4
:1046D000019001BD49E5020003B40148019001BD0C
:1046E000F9E3020003B40148019001BDE123030096
:1046F00003B40148019001BD4BCD020003B4014851
:10470000019001BD99D1020003B40148019001BD9F
:10471000ABD0020003B40148019001BD69D0020092
:1047200003B40148019001BD77CF020003B40148F2
:10473000019001BD01CC020003B40148019001BD0C
:1047400029CC020003B40148019001BD15D202003A
:1047500003B40148019001BD8DD2020003B40148A9
:10476000019001BD3350020003B40148019001BD26
:104770005548020003B40148019001BD1F500200DA
:1047800003B40148019001BD7F0C030003B401484C
:10479000019001BDAB0C030003B40148019001BDC1
:1047A000773B030003B40148019001BD7920030069
:1047B00003B40148019001BD2129030003B401485D
:1047C000019001BDD990020003B40148019001BDE0
:1047D000C768020003B40148019001BD0D2C03001D
:1047E00003B40148019001BD1531030003B4014831
:1047F000019001BD1B66020003B40148019001BD98
:10480000652C030003B40148019001BDF793020039
:1048100003B40148019001BDDB2E030003B401483D
:10482000019001BD231D020003B40148019001BDA8
:10483000C32C030003B40148019001BD3B66020094
:1048400003B40148019001BD2B66020003B4014886
:10485000019001BD038D020003B40148019001BD28
:10486000CF8F020003B40148019001BDE3E30200D1
:1048700003B40148019001BD95E3020003B401486F
:10488000019001BD533B030003B40148019001BDF9
:104890008725030003B40148019001BD95980200EB
:1048A00003B40148019001BD9599020003B4014889
:1048B000019001BD6D9B020003B40148019001BD50
:1048C0007B9C020003B40148019001BDB7E30200E4
:1048D00003B40148019001BDF3AF020003B40148E5
:1048E000019001BD459F020003B40148019001BD44
:1048F000A59B020003B40148019001BD739B020017
:1049000003B40148019001BD299C020003B4014891
:10491000019001BDD129030003B40148019001BDFC
:104920002528030003B40148019001BD15220300AE
:1049300003B40148019001BDD722030003B401482C
:10494000019001BD213B030003B40148019001BD6A
:104950008D3D0300FFB581B00C4605460A461F4653
:10496000012000210A9EFFF7EFFF2A01FFF7ECFF6D
:104970000C4B1A685B6810401940084300D100BE18
:10498000002E2146284602D000F05AF801E000F03F
:1049900079F83B4621462846039A00F095F805B081
:1049A000F0BD00000080002010B5244CE3890122F6
:1049B0001338114681408B43C80701D0002038E0EE
:1049C000880701D5012034E0480701D5022030E0F6
:1049D000080701D503202CE0C80601D5042028E0F3
:1049E000880601D5052024E0480601D5062020E0F0
:1049F000080601D507201CE0C80501D5082018E0ED
:104A0000880501D5092014E0480501D50A2010E0E9
:104A1000080501D50B200CE0C80401D50C2008E0E6
:104A2000880401D50D2004E0480401D50E2000E0E3
:104A30000F2082401343E38110BD0000001400509A
:104A400070B504460D460A4601200021FFF77CFFA1
:104A50002201FFF779FF094A136852681840114094
:104A6000084300D100BE032C00D104240449600196
:104A700040180121A940418070BD00000080002045
:104A80000030005070B504460D460A460120002152
:104A9000FFF75AFF2201FFF757FF094A13685268D0
:104AA00018401140084300D100BE032C00D104245B
:104AB0000449600140180121A940818070BD0000B7
:104AC0000080002000300050F8B5164604460D4620
:104AD0000A461F4601200021FFF736FF2201FFF79B
:104AE00033FF094B1A685B6810401940084300D136
:104AF00000BE032C00D10424044960014018690061
:104B000008183E43C680F8BD0080002000300050E9
:104B1000FEB50020214E034628220021424392196F
:104B20008C00491C13510A29FADB401C0428F3DBD2
:104B3000FCF702F819480022083802604260154666
:104B4000002417486900475A0120A04080B207425C
:104B50001CD0282068438019A1004058411C19D05E
:104B6000002810D0C1172246FFF7EEFE2A01FFF7FA
:104B7000EBFE0A4B083B1A685B681043074A19436F
:104B8000083A10605160641C0A2CDDDB6D1C042D9A
:104B9000D6DBFEBD0095019400BEE3E7088000204F
:104BA0008E4C002002E008C8121F08C1002AFAD16A
:104BB00070477047002001E001C1121F002AFBD19D
:104BC0007047000004490A680823C0079A43000F91
:104BD00002430A6070470000040000500149086069
:104BE00070470000BC8000200149888070470000A9
:104BF000003400500149C880704700000034005064
:104C000002480168012211430160704700340050DE
:104C100004490A68C00752085200C00F02430A60E4
:104C2000704700001034005004490A680423C0078C
:104C30009A43400F02430A6070470000103400504E
:104C400004490A680223C0079A43800F02430A609E
:104C5000704700001034005071050020B119002089
:104C60009D1A00205B1B0020891B0020951D002041
:104C7000F91D0020591E00200101000A04280A0421
:104C80000203AA0055032A00A001FFFF2C01FF0028
:104C90003F00FF03FF0100003C4D0020544D002069
:104CA000C2800020030001005365727665722054B3
:104CB00058204461746100536572766572205258C1
:104CC000204461746100466C6F7720436F6E74728C
:104CD0006F6C00B75C49D204A34071A0B535853E26
:104CE000B08307B85C49D204A34071A0B535853EB6
:104CF000B08307BA5C49D204A34071A0B535853EA4
:104D0000B08307B95C49D204A34071A0B535853E94
:104D1000B083070002DC0000D526002000DC000084
:104D2000032900200E3000009329002004DC00003D
:104D30004729002005DC00006B290020144D0020CD
:104D4000010000001C4D002001000000244D002047
:104D50000300000000000000000000000028010027
:104D600002000200404E002003280100050005005B
:104D7000424E0020292A010012000000000000001D
:104D80000328010005000500474E0020242A0100E9
:104D900012000000000000000328010005000500CB
:104DA0004C4E0020252A01001200000000000000E7
:104DB0000328010005000500514E0020272A0100AC
:104DC000120000000000000003280100050005009B
:104DD000564E0020262A01001200000000000000AC
:104DE00003280100050005005B4E0020282A010071
:104DF000120000000000000003280100050005006B
:104E0000604E0020232A010008000000000000007E
:104E10000328010005000500654E00202A2A010034
:104E2000120000000000000003280100050005003A
:104E30006A4E0020502A0100070000000000000018
:104E40000A18020000292A020100242A0202002571
:104E50002A020300272A020400262A020500282A23
:104E6000020600232A0207002A2A020800502A000C
:104E7000A04E0020B84E002072160800030001006A
:104E800000700000212B002002700000772B002012
:104E900003700000C12B002003380000FB2B002012
:104EA000804E002001000000884E0020020000001B
:104EB0000000000000000000984E002001000000EB
:104EC0000028010002000200FC4E0020032801001F
:104ED00005000500FE4E0020192A01000100000017
:104EE000000000000229090002000000000000008C
:104EF0000429010008000000000000000F18020053
:104F000000192A00444F00205C4F00208216080040
:104F10000300010000800000DD2C00200280000062
:104F2000BF2D0020058000009B2E00200E300000C9
:104F3000FB2E002000300000B92F002003380000B5
:104F4000CB2F0020144F0020010000001C4F002038
:104F500001000000244F0020030000003C4F00200F
:104F60000100000000000000F44F0020901608002F
:104F70000600010001340000F13000200034000080
:104F8000153100201034000073320020003800007A
:104F9000FD31002001380000A3310020033800005B
:104FA0002332002000C800004F32002001700000B2
:104FB000193E0020047000003B3F002001800000EB
:104FC00029410020068000004541002007800000A4
:104FD0004941002001C800004D41002002C80000E6
:104FE0006541002003DC0000413B002001DC0000A3
:104FF000673B0020744F00201000000007000800ED
:1050000009000A000A000C000D000D000F000F003F
:10501000100011009050002000800020CC00000003
:10502000B44B00209050002020900020C4010000CC
:10503000B44B002068070800201A0800E0050000B3
:10504000B44B002020000000120000B85C49D204DC
:10505000A34071A0B535853EB08307060000BA5C59
:1050600049D204A34071A0B535853EB08307160030
:1050700000B95C49D204A34071A0B535853EB08328
:105080000700000008000000010000000700060003
:040000052000044192
:00000001FF
